{
  "_format": "hh-sol-artifact-1",
  "contractName": "Market",
  "sourceName": "contracts/MarketERC721.sol",
  "abi": [
    {
      "inputs": [
        {
          "internalType": "address",
          "name": "_tokenAddress",
          "type": "address"
        }
      ],
      "stateMutability": "nonpayable",
      "type": "constructor"
    },
    {
      "anonymous": false,
      "inputs": [
        {
          "indexed": true,
          "internalType": "address",
          "name": "owner",
          "type": "address"
        },
        {
          "indexed": true,
          "internalType": "address",
          "name": "approved",
          "type": "address"
        },
        {
          "indexed": true,
          "internalType": "uint256",
          "name": "tokenId",
          "type": "uint256"
        }
      ],
      "name": "Approval",
      "type": "event"
    },
    {
      "anonymous": false,
      "inputs": [
        {
          "indexed": true,
          "internalType": "address",
          "name": "owner",
          "type": "address"
        },
        {
          "indexed": true,
          "internalType": "address",
          "name": "operator",
          "type": "address"
        },
        {
          "indexed": false,
          "internalType": "bool",
          "name": "approved",
          "type": "bool"
        }
      ],
      "name": "ApprovalForAll",
      "type": "event"
    },
    {
      "anonymous": false,
      "inputs": [
        {
          "indexed": false,
          "internalType": "uint256",
          "name": "disputeId",
          "type": "uint256"
        },
        {
          "indexed": false,
          "internalType": "address[]",
          "name": "selectedArbitrators",
          "type": "address[]"
        }
      ],
      "name": "ArbitratorsSelected",
      "type": "event"
    },
    {
      "anonymous": false,
      "inputs": [
        {
          "indexed": false,
          "internalType": "uint256",
          "name": "sfaId",
          "type": "uint256"
        },
        {
          "indexed": false,
          "internalType": "address",
          "name": "claimant",
          "type": "address"
        },
        {
          "indexed": false,
          "internalType": "string",
          "name": "title",
          "type": "string"
        },
        {
          "indexed": false,
          "internalType": "string",
          "name": "description",
          "type": "string"
        }
      ],
      "name": "DisputeCreated",
      "type": "event"
    },
    {
      "anonymous": false,
      "inputs": [
        {
          "indexed": false,
          "internalType": "uint256",
          "name": "disputeId",
          "type": "uint256"
        },
        {
          "indexed": false,
          "internalType": "enum Market.Vote",
          "name": "result",
          "type": "uint8"
        }
      ],
      "name": "DisputeResolved",
      "type": "event"
    },
    {
      "anonymous": false,
      "inputs": [
        {
          "indexed": true,
          "internalType": "address",
          "name": "previousOwner",
          "type": "address"
        },
        {
          "indexed": true,
          "internalType": "address",
          "name": "newOwner",
          "type": "address"
        }
      ],
      "name": "OwnershipTransferred",
      "type": "event"
    },
    {
      "anonymous": false,
      "inputs": [
        {
          "indexed": false,
          "internalType": "bool",
          "name": "panic",
          "type": "bool"
        }
      ],
      "name": "Panic",
      "type": "event"
    },
    {
      "anonymous": false,
      "inputs": [
        {
          "indexed": true,
          "internalType": "uint256",
          "name": "sfaId",
          "type": "uint256"
        },
        {
          "indexed": true,
          "internalType": "address",
          "name": "publisher",
          "type": "address"
        },
        {
          "indexed": false,
          "internalType": "string",
          "name": "cid",
          "type": "string"
        },
        {
          "indexed": false,
          "internalType": "uint256",
          "name": "vesting",
          "type": "uint256"
        },
        {
          "indexed": false,
          "internalType": "uint256",
          "name": "startTime",
          "type": "uint256"
        },
        {
          "indexed": false,
          "internalType": "uint256",
          "name": "ttl",
          "type": "uint256"
        }
      ],
      "name": "SFACreated",
      "type": "event"
    },
    {
      "anonymous": false,
      "inputs": [
        {
          "indexed": true,
          "internalType": "address",
          "name": "from",
          "type": "address"
        },
        {
          "indexed": true,
          "internalType": "address",
          "name": "to",
          "type": "address"
        },
        {
          "indexed": true,
          "internalType": "uint256",
          "name": "tokenId",
          "type": "uint256"
        }
      ],
      "name": "Transfer",
      "type": "event"
    },
    {
      "anonymous": false,
      "inputs": [
        {
          "indexed": true,
          "internalType": "address",
          "name": "from",
          "type": "address"
        },
        {
          "indexed": true,
          "internalType": "address",
          "name": "to",
          "type": "address"
        },
        {
          "indexed": false,
          "internalType": "uint256",
          "name": "amount",
          "type": "uint256"
        }
      ],
      "name": "Withdrawed",
      "type": "event"
    },
    {
      "inputs": [
        {
          "internalType": "uint256",
          "name": "_sfaId",
          "type": "uint256"
        }
      ],
      "name": "acceptHostTransfer",
      "outputs": [],
      "stateMutability": "nonpayable",
      "type": "function"
    },
    {
      "inputs": [
        {
          "internalType": "address",
          "name": "to",
          "type": "address"
        },
        {
          "internalType": "uint256",
          "name": "tokenId",
          "type": "uint256"
        }
      ],
      "name": "approve",
      "outputs": [],
      "stateMutability": "nonpayable",
      "type": "function"
    },
    {
      "inputs": [],
      "name": "arbitratorsPerDispute",
      "outputs": [
        {
          "internalType": "uint256",
          "name": "",
          "type": "uint256"
        }
      ],
      "stateMutability": "view",
      "type": "function"
    },
    {
      "inputs": [
        {
          "internalType": "address",
          "name": "owner",
          "type": "address"
        }
      ],
      "name": "balanceOf",
      "outputs": [
        {
          "internalType": "uint256",
          "name": "",
          "type": "uint256"
        }
      ],
      "stateMutability": "view",
      "type": "function"
    },
    {
      "inputs": [],
      "name": "callerIncentivesBPS",
      "outputs": [
        {
          "internalType": "uint256",
          "name": "",
          "type": "uint256"
        }
      ],
      "stateMutability": "view",
      "type": "function"
    },
    {
      "inputs": [
        {
          "internalType": "uint256",
          "name": "_sfaId",
          "type": "uint256"
        }
      ],
      "name": "claimHost",
      "outputs": [],
      "stateMutability": "nonpayable",
      "type": "function"
    },
    {
      "inputs": [
        {
          "internalType": "uint256",
          "name": "_sfaId",
          "type": "uint256"
        }
      ],
      "name": "claimVesting",
      "outputs": [],
      "stateMutability": "nonpayable",
      "type": "function"
    },
    {
      "inputs": [
        {
          "internalType": "uint256",
          "name": "_disputeId",
          "type": "uint256"
        },
        {
          "internalType": "bytes32",
          "name": "_commitment",
          "type": "bytes32"
        }
      ],
      "name": "commitVote",
      "outputs": [],
      "stateMutability": "nonpayable",
      "type": "function"
    },
    {
      "inputs": [
        {
          "internalType": "uint256",
          "name": "_sfaId",
          "type": "uint256"
        },
        {
          "internalType": "string",
          "name": "_title",
          "type": "string"
        },
        {
          "internalType": "string",
          "name": "_description",
          "type": "string"
        },
        {
          "internalType": "uint256",
          "name": "_startTime",
          "type": "uint256"
        },
        {
          "internalType": "uint256",
          "name": "_endTime",
          "type": "uint256"
        }
      ],
      "name": "createDispute",
      "outputs": [],
      "stateMutability": "nonpayable",
      "type": "function"
    },
    {
      "inputs": [
        {
          "internalType": "string",
          "name": "_cid",
          "type": "string"
        },
        {
          "internalType": "uint256",
          "name": "_vesting",
          "type": "uint256"
        },
        {
          "internalType": "uint256",
          "name": "_startTime",
          "type": "uint256"
        },
        {
          "internalType": "uint256",
          "name": "_ttl",
          "type": "uint256"
        }
      ],
      "name": "createSFA",
      "outputs": [],
      "stateMutability": "nonpayable",
      "type": "function"
    },
    {
      "inputs": [
        {
          "internalType": "uint256",
          "name": "_disputeId",
          "type": "uint256"
        }
      ],
      "name": "disputeArbitrators",
      "outputs": [
        {
          "internalType": "address[]",
          "name": "",
          "type": "address[]"
        }
      ],
      "stateMutability": "view",
      "type": "function"
    },
    {
      "inputs": [
        {
          "internalType": "address",
          "name": "",
          "type": "address"
        }
      ],
      "name": "disputeBalances",
      "outputs": [
        {
          "internalType": "uint256",
          "name": "",
          "type": "uint256"
        }
      ],
      "stateMutability": "view",
      "type": "function"
    },
    {
      "inputs": [
        {
          "internalType": "uint256",
          "name": "_disputeId",
          "type": "uint256"
        },
        {
          "internalType": "address",
          "name": "_commiter",
          "type": "address"
        }
      ],
      "name": "disputeCommitments",
      "outputs": [
        {
          "internalType": "bytes32",
          "name": "",
          "type": "bytes32"
        }
      ],
      "stateMutability": "view",
      "type": "function"
    },
    {
      "inputs": [],
      "name": "disputeCounter",
      "outputs": [
        {
          "internalType": "uint256",
          "name": "",
          "type": "uint256"
        }
      ],
      "stateMutability": "view",
      "type": "function"
    },
    {
      "inputs": [
        {
          "internalType": "uint256",
          "name": "_disputeId",
          "type": "uint256"
        },
        {
          "internalType": "address",
          "name": "_address",
          "type": "address"
        }
      ],
      "name": "disputeVotes",
      "outputs": [
        {
          "internalType": "enum Market.Vote",
          "name": "",
          "type": "uint8"
        }
      ],
      "stateMutability": "view",
      "type": "function"
    },
    {
      "inputs": [
        {
          "internalType": "uint256",
          "name": "",
          "type": "uint256"
        }
      ],
      "name": "disputes",
      "outputs": [
        {
          "internalType": "address",
          "name": "claimant",
          "type": "address"
        },
        {
          "internalType": "uint256",
          "name": "sfaId",
          "type": "uint256"
        },
        {
          "internalType": "string",
          "name": "title",
          "type": "string"
        },
        {
          "internalType": "string",
          "name": "description",
          "type": "string"
        },
        {
          "internalType": "uint256",
          "name": "startTime",
          "type": "uint256"
        },
        {
          "internalType": "uint256",
          "name": "endTime",
          "type": "uint256"
        },
        {
          "internalType": "uint256",
          "name": "deadline",
          "type": "uint256"
        },
        {
          "internalType": "uint256",
          "name": "penalties",
          "type": "uint256"
        },
        {
          "internalType": "enum Market.Status",
          "name": "status",
          "type": "uint8"
        }
      ],
      "stateMutability": "view",
      "type": "function"
    },
    {
      "inputs": [
        {
          "internalType": "uint256",
          "name": "tokenId",
          "type": "uint256"
        }
      ],
      "name": "getApproved",
      "outputs": [
        {
          "internalType": "address",
          "name": "",
          "type": "address"
        }
      ],
      "stateMutability": "view",
      "type": "function"
    },
    {
      "inputs": [
        {
          "internalType": "address",
          "name": "",
          "type": "address"
        }
      ],
      "name": "hosts",
      "outputs": [
        {
          "internalType": "enum Market.Status",
          "name": "status",
          "type": "uint8"
        },
        {
          "internalType": "string",
          "name": "multiaddress",
          "type": "string"
        }
      ],
      "stateMutability": "view",
      "type": "function"
    },
    {
      "inputs": [
        {
          "internalType": "uint256",
          "name": "_sfaId",
          "type": "uint256"
        },
        {
          "internalType": "address",
          "name": "_newHost",
          "type": "address"
        }
      ],
      "name": "initiateHostTransfer",
      "outputs": [],
      "stateMutability": "nonpayable",
      "type": "function"
    },
    {
      "inputs": [
        {
          "internalType": "address",
          "name": "owner",
          "type": "address"
        },
        {
          "internalType": "address",
          "name": "operator",
          "type": "address"
        }
      ],
      "name": "isApprovedForAll",
      "outputs": [
        {
          "internalType": "bool",
          "name": "",
          "type": "bool"
        }
      ],
      "stateMutability": "view",
      "type": "function"
    },
    {
      "inputs": [
        {
          "internalType": "address",
          "name": "",
          "type": "address"
        }
      ],
      "name": "keepers",
      "outputs": [
        {
          "internalType": "bool",
          "name": "",
          "type": "bool"
        }
      ],
      "stateMutability": "view",
      "type": "function"
    },
    {
      "inputs": [
        {
          "internalType": "address",
          "name": "sentinel",
          "type": "address"
        }
      ],
      "name": "kickSentinel",
      "outputs": [],
      "stateMutability": "nonpayable",
      "type": "function"
    },
    {
      "inputs": [],
      "name": "name",
      "outputs": [
        {
          "internalType": "string",
          "name": "",
          "type": "string"
        }
      ],
      "stateMutability": "view",
      "type": "function"
    },
    {
      "inputs": [],
      "name": "owner",
      "outputs": [
        {
          "internalType": "address",
          "name": "",
          "type": "address"
        }
      ],
      "stateMutability": "view",
      "type": "function"
    },
    {
      "inputs": [
        {
          "internalType": "uint256",
          "name": "tokenId",
          "type": "uint256"
        }
      ],
      "name": "ownerOf",
      "outputs": [
        {
          "internalType": "address",
          "name": "",
          "type": "address"
        }
      ],
      "stateMutability": "view",
      "type": "function"
    },
    {
      "inputs": [],
      "name": "panic",
      "outputs": [
        {
          "internalType": "bool",
          "name": "",
          "type": "bool"
        }
      ],
      "stateMutability": "view",
      "type": "function"
    },
    {
      "inputs": [
        {
          "internalType": "string",
          "name": "_multiaddress",
          "type": "string"
        }
      ],
      "name": "registerHost",
      "outputs": [],
      "stateMutability": "nonpayable",
      "type": "function"
    },
    {
      "inputs": [],
      "name": "registerSentinel",
      "outputs": [],
      "stateMutability": "nonpayable",
      "type": "function"
    },
    {
      "inputs": [],
      "name": "renounceOwnership",
      "outputs": [],
      "stateMutability": "nonpayable",
      "type": "function"
    },
    {
      "inputs": [
        {
          "internalType": "uint256",
          "name": "_disputeId",
          "type": "uint256"
        }
      ],
      "name": "resolveDispute",
      "outputs": [],
      "stateMutability": "nonpayable",
      "type": "function"
    },
    {
      "inputs": [
        {
          "internalType": "uint256",
          "name": "_disputeId",
          "type": "uint256"
        },
        {
          "internalType": "enum Market.Vote",
          "name": "_vote",
          "type": "uint8"
        },
        {
          "internalType": "uint256",
          "name": "_salt",
          "type": "uint256"
        }
      ],
      "name": "revealVote",
      "outputs": [],
      "stateMutability": "nonpayable",
      "type": "function"
    },
    {
      "inputs": [
        {
          "internalType": "address",
          "name": "from",
          "type": "address"
        },
        {
          "internalType": "address",
          "name": "to",
          "type": "address"
        },
        {
          "internalType": "uint256",
          "name": "tokenId",
          "type": "uint256"
        }
      ],
      "name": "safeTransferFrom",
      "outputs": [],
      "stateMutability": "nonpayable",
      "type": "function"
    },
    {
      "inputs": [
        {
          "internalType": "address",
          "name": "from",
          "type": "address"
        },
        {
          "internalType": "address",
          "name": "to",
          "type": "address"
        },
        {
          "internalType": "uint256",
          "name": "tokenId",
          "type": "uint256"
        },
        {
          "internalType": "bytes",
          "name": "data",
          "type": "bytes"
        }
      ],
      "name": "safeTransferFrom",
      "outputs": [],
      "stateMutability": "nonpayable",
      "type": "function"
    },
    {
      "inputs": [],
      "name": "sentinelFeeBPS",
      "outputs": [
        {
          "internalType": "uint256",
          "name": "",
          "type": "uint256"
        }
      ],
      "stateMutability": "view",
      "type": "function"
    },
    {
      "inputs": [
        {
          "internalType": "address",
          "name": "",
          "type": "address"
        }
      ],
      "name": "sentinels",
      "outputs": [
        {
          "internalType": "enum Market.Status",
          "name": "status",
          "type": "uint8"
        },
        {
          "internalType": "uint256",
          "name": "collateral",
          "type": "uint256"
        }
      ],
      "stateMutability": "view",
      "type": "function"
    },
    {
      "inputs": [],
      "name": "sentinelsCollateral",
      "outputs": [
        {
          "internalType": "uint256",
          "name": "",
          "type": "uint256"
        }
      ],
      "stateMutability": "view",
      "type": "function"
    },
    {
      "inputs": [],
      "name": "sentinelsCounter",
      "outputs": [
        {
          "internalType": "uint256",
          "name": "",
          "type": "uint256"
        }
      ],
      "stateMutability": "view",
      "type": "function"
    },
    {
      "inputs": [
        {
          "internalType": "uint256",
          "name": "",
          "type": "uint256"
        }
      ],
      "name": "sentinelsIndex",
      "outputs": [
        {
          "internalType": "address",
          "name": "",
          "type": "address"
        }
      ],
      "stateMutability": "view",
      "type": "function"
    },
    {
      "inputs": [
        {
          "internalType": "address",
          "name": "operator",
          "type": "address"
        },
        {
          "internalType": "bool",
          "name": "approved",
          "type": "bool"
        }
      ],
      "name": "setApprovalForAll",
      "outputs": [],
      "stateMutability": "nonpayable",
      "type": "function"
    },
    {
      "inputs": [
        {
          "internalType": "uint256",
          "name": "_newBPS",
          "type": "uint256"
        }
      ],
      "name": "setCallerIncentivesBPS",
      "outputs": [],
      "stateMutability": "nonpayable",
      "type": "function"
    },
    {
      "inputs": [
        {
          "internalType": "uint256",
          "name": "_newBPS",
          "type": "uint256"
        }
      ],
      "name": "setCollateralRatioBPS",
      "outputs": [],
      "stateMutability": "nonpayable",
      "type": "function"
    },
    {
      "inputs": [
        {
          "internalType": "address",
          "name": "_keeper",
          "type": "address"
        },
        {
          "internalType": "bool",
          "name": "_status",
          "type": "bool"
        }
      ],
      "name": "setKeeper",
      "outputs": [],
      "stateMutability": "nonpayable",
      "type": "function"
    },
    {
      "inputs": [
        {
          "internalType": "bool",
          "name": "_bool",
          "type": "bool"
        }
      ],
      "name": "setPanic",
      "outputs": [],
      "stateMutability": "nonpayable",
      "type": "function"
    },
    {
      "inputs": [
        {
          "internalType": "address",
          "name": "_user",
          "type": "address"
        },
        {
          "internalType": "bool",
          "name": "_bool",
          "type": "bool"
        }
      ],
      "name": "setPauseWithdrawals",
      "outputs": [],
      "stateMutability": "nonpayable",
      "type": "function"
    },
    {
      "inputs": [],
      "name": "sfaCollateralRatioBPS",
      "outputs": [
        {
          "internalType": "uint256",
          "name": "",
          "type": "uint256"
        }
      ],
      "stateMutability": "view",
      "type": "function"
    },
    {
      "inputs": [],
      "name": "sfaCounter",
      "outputs": [
        {
          "internalType": "uint256",
          "name": "",
          "type": "uint256"
        }
      ],
      "stateMutability": "view",
      "type": "function"
    },
    {
      "inputs": [
        {
          "internalType": "uint256",
          "name": "",
          "type": "uint256"
        }
      ],
      "name": "sfas",
      "outputs": [
        {
          "internalType": "address",
          "name": "publisher",
          "type": "address"
        },
        {
          "internalType": "string",
          "name": "cid",
          "type": "string"
        },
        {
          "internalType": "uint256",
          "name": "vesting",
          "type": "uint256"
        },
        {
          "internalType": "uint256",
          "name": "vested",
          "type": "uint256"
        },
        {
          "internalType": "uint256",
          "name": "startTime",
          "type": "uint256"
        },
        {
          "internalType": "uint256",
          "name": "ttl",
          "type": "uint256"
        },
        {
          "internalType": "enum Market.Status",
          "name": "status",
          "type": "uint8"
        },
        {
          "internalType": "address",
          "name": "host",
          "type": "address"
        },
        {
          "internalType": "address",
          "name": "pendingHost",
          "type": "address"
        },
        {
          "internalType": "uint256",
          "name": "collateral",
          "type": "uint256"
        }
      ],
      "stateMutability": "view",
      "type": "function"
    },
    {
      "inputs": [
        {
          "internalType": "bytes4",
          "name": "interfaceId",
          "type": "bytes4"
        }
      ],
      "name": "supportsInterface",
      "outputs": [
        {
          "internalType": "bool",
          "name": "",
          "type": "bool"
        }
      ],
      "stateMutability": "view",
      "type": "function"
    },
    {
      "inputs": [],
      "name": "symbol",
      "outputs": [
        {
          "internalType": "string",
          "name": "",
          "type": "string"
        }
      ],
      "stateMutability": "view",
      "type": "function"
    },
    {
      "inputs": [],
      "name": "tokenAddress",
      "outputs": [
        {
          "internalType": "address",
          "name": "",
          "type": "address"
        }
      ],
      "stateMutability": "view",
      "type": "function"
    },
    {
      "inputs": [
        {
          "internalType": "address",
          "name": "",
          "type": "address"
        }
      ],
      "name": "tokenBalances",
      "outputs": [
        {
          "internalType": "uint256",
          "name": "",
          "type": "uint256"
        }
      ],
      "stateMutability": "view",
      "type": "function"
    },
    {
      "inputs": [
        {
          "internalType": "uint256",
          "name": "tokenId",
          "type": "uint256"
        }
      ],
      "name": "tokenURI",
      "outputs": [
        {
          "internalType": "string",
          "name": "",
          "type": "string"
        }
      ],
      "stateMutability": "view",
      "type": "function"
    },
    {
      "inputs": [
        {
          "internalType": "address",
          "name": "from",
          "type": "address"
        },
        {
          "internalType": "address",
          "name": "to",
          "type": "address"
        },
        {
          "internalType": "uint256",
          "name": "tokenId",
          "type": "uint256"
        }
      ],
      "name": "transferFrom",
      "outputs": [],
      "stateMutability": "nonpayable",
      "type": "function"
    },
    {
      "inputs": [
        {
          "internalType": "address",
          "name": "newOwner",
          "type": "address"
        }
      ],
      "name": "transferOwnership",
      "outputs": [],
      "stateMutability": "nonpayable",
      "type": "function"
    },
    {
      "inputs": [
        {
          "internalType": "string",
          "name": "_multiaddress",
          "type": "string"
        }
      ],
      "name": "updateHost",
      "outputs": [],
      "stateMutability": "nonpayable",
      "type": "function"
    },
    {
      "inputs": [
        {
          "internalType": "uint256",
          "name": "_sfaId",
          "type": "uint256"
        },
        {
          "internalType": "enum Market.Status",
          "name": "_newStatus",
          "type": "uint8"
        }
      ],
      "name": "updateSFAStatus",
      "outputs": [],
      "stateMutability": "nonpayable",
      "type": "function"
    },
    {
      "inputs": [
        {
          "internalType": "address",
          "name": "_sentinel",
          "type": "address"
        },
        {
          "internalType": "enum Market.Status",
          "name": "_newStatus",
          "type": "uint8"
        }
      ],
      "name": "updateSentinelStatus",
      "outputs": [],
      "stateMutability": "nonpayable",
      "type": "function"
    },
    {
      "inputs": [
        {
          "internalType": "uint256",
          "name": "_sfaId",
          "type": "uint256"
        }
      ],
      "name": "vestingAvailable",
      "outputs": [
        {
          "internalType": "uint256",
          "name": "vestingAvailableAmount",
          "type": "uint256"
        }
      ],
      "stateMutability": "view",
      "type": "function"
    },
    {
      "inputs": [
        {
          "internalType": "uint256",
          "name": "_sfaId",
          "type": "uint256"
        }
      ],
      "name": "vestingCallerIncentives",
      "outputs": [
        {
          "internalType": "uint256",
          "name": "vestingCallerIncentivesAmount",
          "type": "uint256"
        }
      ],
      "stateMutability": "view",
      "type": "function"
    },
    {
      "inputs": [
        {
          "internalType": "address",
          "name": "_to",
          "type": "address"
        },
        {
          "internalType": "uint256",
          "name": "_amount",
          "type": "uint256"
        }
      ],
      "name": "withdraw",
      "outputs": [],
      "stateMutability": "nonpayable",
      "type": "function"
    },
    {
      "inputs": [
        {
          "internalType": "address",
          "name": "",
          "type": "address"
        }
      ],
      "name": "withdrawalPaused",
      "outputs": [
        {
          "internalType": "bool",
          "name": "",
          "type": "bool"
        }
      ],
      "stateMutability": "view",
      "type": "function"
    }
  ],
  "bytecode": "0x608060405260326013556032601455614e206015556801a055690d9db8000060165560036017553480156200003357600080fd5b50604051620045d5380380620045d5833981016040819052620000569162000168565b6040518060400160405280601a81526020017f53746f7261676520466f72776172642041677265656d656e74730000000000008152506040518060400160405280600a81526020016914d1904813585c9ad95d60b21b8152508160009081620000c0919062000241565b506001620000cf828262000241565b505050620000ec620000e66200011260201b60201c565b62000116565b601880546001600160a01b0319166001600160a01b03929092169190911790556200030d565b3390565b600680546001600160a01b038381166001600160a01b0319831681179093556040519116919082907f8be0079c531659141344cd1fd0a4f28419497f9722a3daafe3b4186f6b6457e090600090a35050565b6000602082840312156200017b57600080fd5b81516001600160a01b03811681146200019357600080fd5b9392505050565b634e487b7160e01b600052604160045260246000fd5b600181811c90821680620001c557607f821691505b602082108103620001e657634e487b7160e01b600052602260045260246000fd5b50919050565b601f8211156200023c576000816000526020600020601f850160051c81016020861015620002175750805b601f850160051c820191505b81811015620002385782815560010162000223565b5050505b505050565b81516001600160401b038111156200025d576200025d6200019a565b62000275816200026e8454620001b0565b84620001ec565b602080601f831160018114620002ad5760008415620002945750858301515b600019600386901b1c1916600185901b17855562000238565b600085815260208120601f198616915b82811015620002de57888601518255948401946001909101908401620002bd565b5085821015620002fd5787850151600019600388901b60f8161c191681555b5050505050600190811b01905550565b6142b8806200031d6000396000f3fe608060405234801561001057600080fd5b50600436106103af5760003560e01c806380bed418116101f4578063b9ced5fe1161011a578063d1b9e853116100ad578063f2fde38b1161007c578063f2fde38b14610901578063f3fef3a314610914578063f770168814610927578063ffa837b91461093a57600080fd5b8063d1b9e853146108a0578063e852bda2146108b3578063e985e9c5146108bc578063eb8ce906146108f857600080fd5b8063c2b7b868116100e9578063c2b7b86814610847578063c32429871461085a578063c87b56dd1461087a578063cae46e111461088d57600080fd5b8063b9ced5fe146107d4578063bb7852af146107f5578063bba0b9ac14610815578063be84ad961461081e57600080fd5b806395d89b4111610192578063a364eaea11610161578063a364eaea14610788578063a9412a121461079b578063ac97b417146107ae578063b88d4fde146107c157600080fd5b806395d89b41146107475780639d76ea581461074f5780639da6918014610762578063a22cb4651461077557600080fd5b80638da5cb5b116101ce5780638da5cb5b146106e75780638fb6fd86146106f8578063908659851461072157806392086f3b1461073457600080fd5b806380bed418146106b85780638cbad018146106cb5780638cf81274146106de57600080fd5b8063346c1c30116102d957806354699a7b116102775780636796e176116102465780636796e1761461068157806370a0823114610694578063715018a6146106a75780637d36f4d3146106af57600080fd5b806354699a7b14610610578063564a565d1461063357806358f30e5b1461065b5780636352211e1461066e57600080fd5b806345375d6c116102b357806345375d6c146105c157806345fe95f8146105c95780634700d305146105dc578063523fba7f146105f057600080fd5b8063346c1c30146105785780633bbd64bc1461058b57806342842e0e146105ae57600080fd5b80630f11132411610351578063203d82cb11610320578063203d82cb146104ff57806323b872dd14610549578063303c24e51461055c57806332e939d31461056557600080fd5b80630f111324146104c757806312d15544146104da578063130a0393146104e35780631f9d8a6b146104ec57600080fd5b8063081812fc1161038d578063081812fc1461042c578063093c1cf414610457578063095ea7b31461049f5780630d62fcbc146104b457600080fd5b806301ffc9a7146103b457806302892d70146103dc57806306fdde0314610417575b600080fd5b6103c76103c23660046136ee565b61094d565b60405190151581526020015b60405180910390f35b6104096103ea366004613727565b600b602052600090815260409020805460019091015460ff9091169082565b6040516103d3929190613776565b61041f61099f565b6040516103d391906137dd565b61043f61043a3660046137f0565b610a31565b6040516001600160a01b0390911681526020016103d3565b610491610465366004613809565b6000828152600d602090815260408083206001600160a01b038516845260080190915290205492915050565b6040519081526020016103d3565b6104b26104ad366004613835565b610a58565b005b6104916104c23660046137f0565b610b72565b6104b26104d536600461386c565b610bfd565b61049160175481565b61049160165481565b6104b26104fa3660046138a4565b610e71565b61053c61050d366004613809565b6000828152600d602090815260408083206001600160a01b038516845260090190915290205460ff1692915050565b6040516103d391906138db565b6104b26105573660046138ee565b610eb7565b61049160105481565b6104b2610573366004613938565b610ee8565b6104b2610586366004613a01565b610f84565b6103c7610599366004613727565b600f6020526000908152604090205460ff1681565b6104b26105bc3660046138ee565b6112ca565b6104b26112e5565b6104b26105d7366004613a55565b611493565b6018546103c790600160a01b900460ff1681565b6104916105fe366004613727565b60086020526000908152604090205481565b6103c761061e366004613727565b600e6020526000908152604090205460ff1681565b6106466106413660046137f0565b611567565b6040516103d399989796959493929190613a8a565b6104b2610669366004613b03565b6116cc565b61043f61067c3660046137f0565b61173b565b6104b261068f366004613809565b61179b565b6104916106a2366004613727565b6118bc565b6104b2611942565b61049160115481565b6104b26106c6366004613a55565b611956565b6104b26106d9366004613727565b6119dd565b61049160135481565b6006546001600160a01b031661043f565b61043f6107063660046137f0565b600c602052600090815260409020546001600160a01b031681565b6104b261072f366004613b2f565b611a5d565b6104b26107423660046137f0565b611bf8565b61041f611c57565b60185461043f906001600160a01b031681565b6104b2610770366004613b54565b611c66565b6104b2610783366004613b03565b611e27565b6104b2610796366004613b76565b611e32565b6104916107a93660046137f0565b612015565b6104b26107bc3660046137f0565b612045565b6104b26107cf366004613bf5565b6122e8565b6107e76107e2366004613727565b61231a565b6040516103d3929190613c71565b610491610803366004613727565b60076020526000908152604090205481565b61049160145481565b61083161082c3660046137f0565b6123c3565b6040516103d39a99989796959493929190613c93565b6104b26108553660046137f0565b6124b6565b61086d6108683660046137f0565b6127c0565b6040516103d39190613d09565b61041f6108883660046137f0565b61282f565b6104b261089b3660046137f0565b6128a2565b6104b26108ae366004613b03565b612ac0565b61049160125481565b6103c76108ca366004613d56565b6001600160a01b03918216600090815260056020908152604080832093909416825291909152205460ff1690565b61049160155481565b6104b261090f366004613727565b612af3565b6104b2610922366004613835565b612b6c565b6104b26109353660046137f0565b612cac565b6104b26109483660046137f0565b612d0b565b60006001600160e01b031982166380ac58cd60e01b148061097e57506001600160e01b03198216635b5e139f60e01b145b8061099957506301ffc9a760e01b6001600160e01b03198316145b92915050565b6060600080546109ae90613d80565b80601f01602080910402602001604051908101604052809291908181526020018280546109da90613d80565b8015610a275780601f106109fc57610100808354040283529160200191610a27565b820191906000526020600020905b815481529060010190602001808311610a0a57829003601f168201915b5050505050905090565b6000610a3c82612e02565b506000908152600460205260409020546001600160a01b031690565b6000610a638261173b565b9050806001600160a01b0316836001600160a01b031603610ad55760405162461bcd60e51b815260206004820152602160248201527f4552433732313a20617070726f76616c20746f2063757272656e74206f776e656044820152603960f91b60648201526084015b60405180910390fd5b336001600160a01b0382161480610af15750610af181336108ca565b610b635760405162461bcd60e51b815260206004820152603d60248201527f4552433732313a20617070726f76652063616c6c6572206973206e6f7420746f60448201527f6b656e206f776e6572206f7220617070726f76656420666f7220616c6c0000006064820152608401610acc565b610b6d8383612e61565b505050565b600081815260096020526040812060048101548290610b919042613dd0565b905060008260050154836002015483610baa9190613de3565b610bb49190613e10565b9050600083600201548211610bc95781610bcf565b83600201545b905080846003015411610bf0576003840154610beb9082613dd0565b610bf3565b60005b9695505050505050565b6001336000908152600b602052604090205460ff166003811115610c2357610c23613742565b1480610c3957506006546001600160a01b031633145b610c555760405162461bcd60e51b8152600401610acc90613e24565b610c5f8333612ecf565b610ca75760405162461bcd60e51b81526020600482015260196024820152782737ba10309039b2b632b1ba32b21030b93134ba3930ba37b960391b6044820152606401610acc565b6000838152600d602052604090206001600b82015460ff166003811115610cd057610cd0613742565b14610d115760405162461bcd60e51b815260206004820152601160248201527044697370757465204e6f2041637469766560781b6044820152606401610acc565b80600601544211610d645760405162461bcd60e51b815260206004820152601d60248201527f436f6d6d697420446561646c696e65206e6f742046696e6e69736865640000006044820152606401610acc565b6006810154610d7590610e10613e4c565b4210610db85760405162461bcd60e51b8152602060048201526012602482015271111958591b1a5b9948119a5b9b9a5cda195960721b6044820152606401610acc565b60008383604051602001610dcd929190613e5f565b60408051601f198184030181529181528151602092830120336000908152600886019093529120549091508114610e375760405162461bcd60e51b815260206004820152600e60248201526d125b9d985b1a59081c995d99585b60921b6044820152606401610acc565b3360009081526009830160205260409020805485919060ff19166001836003811115610e6557610e65613742565b02179055505050505050565b610e79612f51565b6001600160a01b0382166000908152600b60205260409020805482919060ff19166001836003811115610eae57610eae613742565b02179055505050565b610ec13382612fab565b610edd5760405162461bcd60e51b8152600401610acc90613e7b565b610b6d83838361302a565b336000908152600f602052604090205460ff1680610f1057506006546001600160a01b031633145b610f2c5760405162461bcd60e51b8152600401610acc90613ec8565b60188054821515600160a01b0260ff60a01b199091161790556040517f9a0f5b90e14ee42ea5ca79f3d7b11f8082691c476ef205b0326efcca410e13f290610f7990831515815260200190565b60405180910390a150565b60008311610fe55760405162461bcd60e51b815260206004820152602860248201527f56657374696e6720616d6f756e74206d7573742062652067726561746572207460448201526768616e207a65726f60c01b6064820152608401610acc565b42821161104a5760405162461bcd60e51b815260206004820152602d60248201527f53746172742074696d65206d757374206265206f6c646572207468616e20626c60448201526c06f636b2074696d657374616d7609c1b6064820152608401610acc565b6018546040516323b872dd60e01b8152336004820152306024820152604481018590526001600160a01b03909116906323b872dd906064016020604051808303816000875af11580156110a1573d6000803e3d6000fd5b505050506040513d601f19601f820116820180604052508101906110c59190613eee565b6110e15760405162461bcd60e51b8152600401610acc90613f0b565b601280549060006110f183613f3a565b91905055506111023360125461318e565b604051806101400160405280336001600160a01b03168152602001858152602001848152602001600081526020018381526020018281526020016000600381111561114f5761114f613742565b815260200160006001600160a01b0316815260200160006001600160a01b03168152602001612710601554866111859190613de3565b61118f9190613e10565b90526012546000908152600960209081526040909120825181546001600160a01b0319166001600160a01b039091161781559082015160018201906111d49082613fa3565b5060408201518160020155606082015181600301556080820151816004015560a0820151816005015560c08201518160060160006101000a81548160ff0219169083600381111561122757611227613742565b021790555060e0820151600682018054610100600160a81b0319166101006001600160a01b039384168102919091179091558301516007830180546001600160a01b03191691909216179055610120909101516008909101556012546040513391907f759baf801bc8cd00e0a873301d8edfb21b57809dc76f351a0448e5dbf5468249906112bc908890889088908890614063565b60405180910390a350505050565b610b6d838383604051806020016040528060008152506122e8565b601854600160a01b900460ff16156112fc57600080fd5b336000908152600b602052604081205460ff16600381111561132057611320613742565b1461136d5760405162461bcd60e51b815260206004820152601b60248201527f53656e74696e656c20616c7265616479207265676973746572656400000000006044820152606401610acc565b6018546016546040516323b872dd60e01b815233600482015230602482015260448101919091526001600160a01b03909116906323b872dd906064016020604051808303816000875af11580156113c8573d6000803e3d6000fd5b505050506040513d601f19601f820116820180604052508101906113ec9190613eee565b6114085760405162461bcd60e51b8152600401610acc90613f0b565b604080518082019091528060018152601654602091820152336000908152600b9091526040902081518154829060ff1916600183600381111561144d5761144d613742565b0217905550602091820151600190910155601080546000908152600c9092526040822080546001600160a01b0319163317905580549161148c83613f3a565b9190505550565b336000908152600a602052604081205460ff1660038111156114b7576114b7613742565b146115045760405162461bcd60e51b815260206004820152601760248201527f486f737420616c726561647920726567697374657265640000000000000000006044820152606401610acc565b6040805180820190915280600181526020908101839052336000908152600a9091526040902081518154829060ff1916600183600381111561154857611548613742565b0217905550602082015160018201906115619082613fa3565b50505050565b600d602052600090815260409020805460018201546002830180546001600160a01b0390931693919261159990613d80565b80601f01602080910402602001604051908101604052809291908181526020018280546115c590613d80565b80156116125780601f106115e757610100808354040283529160200191611612565b820191906000526020600020905b8154815290600101906020018083116115f557829003601f168201915b50505050509080600301805461162790613d80565b80601f016020809104026020016040519081016040528092919081815260200182805461165390613d80565b80156116a05780601f10611675576101008083540402835291602001916116a0565b820191906000526020600020905b81548152906001019060200180831161168357829003601f168201915b5050506004840154600585015460068601546007870154600b9097015495969295919450925060ff1689565b336000908152600f602052604090205460ff16806116f457506006546001600160a01b031633145b6117105760405162461bcd60e51b8152600401610acc90613ec8565b6001600160a01b03919091166000908152600e60205260409020805460ff1916911515919091179055565b6000818152600260205260408120546001600160a01b0316806109995760405162461bcd60e51b8152602060048201526018602482015277115490cdcc8c4e881a5b9d985b1a59081d1bdad95b88125160421b6044820152606401610acc565b600082815260096020526040812060048101549091036117cd5760405162461bcd60e51b8152600401610acc90614092565b600681015461010090046001600160a01b031633146118425760405162461bcd60e51b815260206004820152602b60248201527f4f6e6c79207468652063757272656e7420686f73742063616e20696e6974696160448201526a3a32903a3930b739b332b960a91b6064820152608401610acc565b6001600160a01b0382166118985760405162461bcd60e51b815260206004820152601f60248201527f4e657720686f737420616464726573732063616e6e6f74206265207a65726f006044820152606401610acc565b60070180546001600160a01b0319166001600160a01b039290921691909117905550565b60006001600160a01b0382166119265760405162461bcd60e51b815260206004820152602960248201527f4552433732313a2061646472657373207a65726f206973206e6f7420612076616044820152683634b21037bbb732b960b91b6064820152608401610acc565b506001600160a01b031660009081526003602052604090205490565b61194a612f51565b6119546000613319565b565b336000908152600a602052604081205460ff16600381111561197a5761197a613742565b036119bd5760405162461bcd60e51b8152602060048201526013602482015272121bdcdd081b9bdd081c9959da5cdd195c9959606a1b6044820152606401610acc565b336000908152600a602052604090206001016119d98282613fa3565b5050565b336000908152600f602052604090205460ff1680611a0557506006546001600160a01b031633145b611a215760405162461bcd60e51b8152600401610acc90613ec8565b6001600160a01b03166000908152600e60209081526040808320805460ff19908116600117909155600b90925290912080549091166002179055565b336000908152600f602052604090205460ff1680611a8557506006546001600160a01b031633145b611aa15760405162461bcd60e51b8152600401610acc90613ec8565b6001816003811115611ab557611ab5613742565b1480611ad257506002816003811115611ad057611ad0613742565b145b611b295760405162461bcd60e51b815260206004820152602260248201527f4e657720537461747573206973206e6f7420414354495645206f722050415553604482015261115160f21b6064820152608401610acc565b60008281526009602052604090206001600682015460ff166003811115611b5257611b52613742565b1480611b7657506002600682015460ff166003811115611b7457611b74613742565b145b611bcd5760405162461bcd60e51b815260206004820152602260248201527f53464120537461747573206973206e6f7420414354495645206f722050415553604482015261115160f21b6064820152608401610acc565b60068101805483919060ff19166001836003811115611bee57611bee613742565b0217905550505050565b611c00612f51565b612710811115611c525760405162461bcd60e51b815260206004820152601d60248201527f4250532076616c75652063616e6e6f74206578636565642031303030300000006044820152606401610acc565b601555565b6060600180546109ae90613d80565b6001336000908152600b602052604090205460ff166003811115611c8c57611c8c613742565b1480611ca257506006546001600160a01b031633145b611cbe5760405162461bcd60e51b8152600401610acc90613e24565b611cc88233612ecf565b611d105760405162461bcd60e51b81526020600482015260196024820152782737ba10309039b2b632b1ba32b21030b93134ba3930ba37b960391b6044820152606401610acc565b6000828152600d602052604090206001600b82015460ff166003811115611d3957611d39613742565b14611d7a5760405162461bcd60e51b815260206004820152601160248201527044697370757465204e6f2041637469766560781b6044820152606401610acc565b42816006015411611dc25760405162461bcd60e51b8152602060048201526012602482015271111958591b1a5b9948119a5b9b9a5cda195960721b6044820152606401610acc565b33600090815260088201602052604090205415611e115760405162461bcd60e51b815260206004820152600d60248201526c105b1c9958591e481d9bdd1959609a1b6044820152606401610acc565b3360009081526008909101602052604090205550565b6119d933838361336b565b6001336000908152600b602052604090205460ff166003811115611e5857611e58613742565b1480611e6e57506006546001600160a01b031633145b611e8a5760405162461bcd60e51b8152600401610acc90613e24565b6011546000908152600d6020526040902080546001600160a01b031916331781556001810186905560028101611ec08682613fa3565b50600481018390556005810182905560038101611edd8582613fa3565b50600b8101805460ff19166001179055611ef942610e10613e4c565b600682015560005b601754600a8301541015611fb85760105444821c90600090611f2390836140be565b6000818152600c60205260409020549091506001600160a01b031660016001600160a01b0382166000908152600b602052604090205460ff166003811115611f6d57611f6d613742565b03611fa357600a85018054600181018255600091825260209091200180546001600160a01b0319166001600160a01b0383161790555b83611fad81613f3a565b945050505050611f01565b7f908abeda260aaba5cf76cf6e43c270b383303e043a00a7a003b0d6c9648fc9f3601154338888604051611fef94939291906140d2565b60405180910390a16011805490600061200783613f3a565b919050555050505050505050565b60008061202183610b72565b9050612710601354826120349190613de3565b61203e9190613e10565b9392505050565b601854600160a01b900460ff161561206f5760405162461bcd60e51b8152600401610acc90614119565b600081815260096020526040812060048101549091036120a15760405162461bcd60e51b8152600401610acc90614092565b6001600682015460ff1660038111156120bc576120bc613742565b146120fd5760405162461bcd60e51b8152602060048201526011602482015270534641206973206e6f742061637469766560781b6044820152606401610acc565b8060040154421161215b5760405162461bcd60e51b815260206004820152602260248201527f56657374696e6720706572696f6420686173206e6f7420737461727465642079604482015261195d60f21b6064820152608401610acc565b600061216683610b72565b9050600081116121b85760405162461bcd60e51b815260206004820152601a60248201527f4e6f2076657374656420746f6b656e7320617661696c61626c650000000000006044820152606401610acc565b6000612710601354836121cb9190613de3565b6121d59190613e10565b9050818360030160008282546121eb9190613e4c565b909155506121fb90508183613dd0565b600684015461010090046001600160a01b03166000908152600860205260408120805490919061222c908490613e4c565b90915550503360009081526008602052604081208054839290612250908490613e4c565b9091555060039050600684015460ff16600381111561227157612271613742565b141580156122915750428360050154846004015461228f9190613e4c565b115b1561156157600683018054600360ff1990911617908190556008808501546101009092046001600160a01b031660009081526020919091526040812080549091906122dd908490613e4c565b909155505050505050565b6122f23383612fab565b61230e5760405162461bcd60e51b8152600401610acc90613e7b565b61156184848484613439565b600a602052600090815260409020805460018201805460ff909216929161234090613d80565b80601f016020809104026020016040519081016040528092919081815260200182805461236c90613d80565b80156123b95780601f1061238e576101008083540402835291602001916123b9565b820191906000526020600020905b81548152906001019060200180831161239c57829003601f168201915b5050505050905082565b600960205260009081526040902080546001820180546001600160a01b0390921692916123ef90613d80565b80601f016020809104026020016040519081016040528092919081815260200182805461241b90613d80565b80156124685780601f1061243d57610100808354040283529160200191612468565b820191906000526020600020905b81548152906001019060200180831161244b57829003601f168201915b50505050600283015460038401546004850154600586015460068701546007880154600890980154969794969395509193909260ff83169261010090046001600160a01b039081169216908a565b6001336000908152600b602052604090205460ff1660038111156124dc576124dc613742565b14806124f257506006546001600160a01b031633145b61250e5760405162461bcd60e51b8152600401610acc90613e24565b6000818152600d602052604090206006810154429061252f90610e10613e4c565b1061256f5760405162461bcd60e51b815260206004820152601060248201526f111958591b1a5b99481b9bdd08195b9960821b6044820152606401610acc565b6001600b82015460ff16600381111561258a5761258a613742565b146125ca5760405162461bcd60e51b815260206004820152601060248201526f111a5cdc1d5d1948199a5b9a5cda195960821b6044820152606401610acc565b6000806000805b600a8501548110156126a857600085600a0182815481106125f4576125f4614139565b60009182526020808320909101546001600160a01b03168083526009890190915260409091205490915060ff16600181600381111561263557612635613742565b0361264c578561264481613f3a565b96505061269e565b600281600381111561266057612660613742565b03612677578461266f81613f3a565b95505061269e565b600381600381111561268b5761268b613742565b0361269e578361269a81613f3a565b9450505b50506001016125d1565b5060008284116126b95760026126bc565b60015b600b8601805460ff1916600390811790915590915060019082908111156126e5576126e5613742565b0361277f5760145460018601546000908152600960205260408120600801549091612710916127149190613de3565b61271e9190613e10565b9050806009600088600101548152602001908152602001600020600801600082825461274a9190613dd0565b909155505085546001600160a01b031660009081526008602052604081208054839290612778908490613e4c565b9091555050505b7f2ffcfee146bc0d5ff304c6b65111a0d485af9456dc64eee7d66ebdcc90b223ea86826040516127b092919061414f565b60405180910390a1505050505050565b6000818152600d6020908152604091829020600a0180548351818402810184019094528084526060939283018282801561282357602002820191906000526020600020905b81546001600160a01b03168152600190910190602001808311612805575b50505050509050919050565b606061283a82612e02565b600061285160408051602081019091526000815290565b90506000815111612871576040518060200160405280600081525061203e565b8061287b8461346c565b60405160200161288c92919061416c565b6040516020818303038152906040529392505050565b6001336000908152600a602052604090205460ff1660038111156128c8576128c8613742565b146129025760405162461bcd60e51b815260206004820152600a602482015269139bdd0818481a1bdcdd60b21b6044820152606401610acc565b600081815260096020526040812060048101549091036129345760405162461bcd60e51b8152600401610acc90614092565b6000600682015460ff16600381111561294f5761294f613742565b146129945760405162461bcd60e51b815260206004820152601560248201527453464120697320616c72656164792061637469766560581b6044820152606401610acc565b600681015461010090046001600160a01b0316156129eb5760405162461bcd60e51b8152602060048201526014602482015273121bdcdd08185b1c9958591e4818db185a5b595960621b6044820152606401610acc565b60185460088201546040516323b872dd60e01b815233600482015230602482015260448101919091526001600160a01b03909116906323b872dd906064016020604051808303816000875af1158015612a48573d6000803e3d6000fd5b505050506040513d601f19601f82011682018060405250810190612a6c9190613eee565b612a885760405162461bcd60e51b8152600401610acc90613f0b565b600681018054610100600160a81b0319811633610100029081178355600192916001600160a81b03191660ff19909116178280610eae565b612ac8612f51565b6001600160a01b03919091166000908152600f60205260409020805460ff1916911515919091179055565b612afb612f51565b6001600160a01b038116612b605760405162461bcd60e51b815260206004820152602660248201527f4f776e61626c653a206e6577206f776e657220697320746865207a65726f206160448201526564647265737360d01b6064820152608401610acc565b612b6981613319565b50565b601854600160a01b900460ff1615612b965760405162461bcd60e51b8152600401610acc90614119565b33600090815260086020526040902054811115612bf55760405162461bcd60e51b815260206004820152601b60248201527f496e73756666696369656e746520546f6b656e2062616c616e636500000000006044820152606401610acc565b3360009081526008602052604081208054839290612c14908490613dd0565b909155505060185460405163a9059cbb60e01b81526001600160a01b038481166004830152602482018490529091169063a9059cbb906044016020604051808303816000875af1158015612c6c573d6000803e3d6000fd5b505050506040513d601f19601f82011682018060405250810190612c909190613eee565b6119d95760405162461bcd60e51b8152600401610acc90613f0b565b612cb4612f51565b612710811115612d065760405162461bcd60e51b815260206004820152601d60248201527f4250532076616c75652063616e6e6f74206578636565642031303030300000006044820152606401610acc565b601355565b601854600160a01b900460ff1615612d355760405162461bcd60e51b8152600401610acc90614119565b60008181526009602052604081206004810154909103612d675760405162461bcd60e51b8152600401610acc90614092565b60078101546001600160a01b03163314612dd55760405162461bcd60e51b815260206004820152602960248201527f4f6e6c79207468652070656e64696e6720686f73742063616e20616363657074604482015268103a3930b739b332b960b91b6064820152608401610acc565b600681018054610100600160a81b031916336101000217905560070180546001600160a01b031916905550565b6000818152600260205260409020546001600160a01b0316612b695760405162461bcd60e51b8152602060048201526018602482015277115490cdcc8c4e881a5b9d985b1a59081d1bdad95b88125160421b6044820152606401610acc565b600081815260046020526040902080546001600160a01b0319166001600160a01b0384169081179091558190612e968261173b565b6001600160a01b03167f8c5be1e5ebec7d5bd14f71427d1e84f3dd0314c0f7b2291e5b200ac8c7c3b92560405160405180910390a45050565b6000805b6000848152600d60205260409020600a0154811015612f47576000848152600d60205260409020600a0180546001600160a01b038516919083908110612f1b57612f1b614139565b6000918252602090912001546001600160a01b031603612f3f576001915050610999565b600101612ed3565b5060009392505050565b6006546001600160a01b031633146119545760405162461bcd60e51b815260206004820181905260248201527f4f776e61626c653a2063616c6c6572206973206e6f7420746865206f776e65726044820152606401610acc565b600080612fb78361173b565b9050806001600160a01b0316846001600160a01b03161480612ffe57506001600160a01b0380821660009081526005602090815260408083209388168352929052205460ff165b806130225750836001600160a01b031661301784610a31565b6001600160a01b0316145b949350505050565b826001600160a01b031661303d8261173b565b6001600160a01b0316146130635760405162461bcd60e51b8152600401610acc9061419b565b6001600160a01b0382166130c55760405162461bcd60e51b8152602060048201526024808201527f4552433732313a207472616e7366657220746f20746865207a65726f206164646044820152637265737360e01b6064820152608401610acc565b826001600160a01b03166130d88261173b565b6001600160a01b0316146130fe5760405162461bcd60e51b8152600401610acc9061419b565b600081815260046020908152604080832080546001600160a01b03199081169091556001600160a01b0387811680865260038552838620805460001901905590871680865283862080546001019055868652600290945282852080549092168417909155905184937fddf252ad1be2c89b69c2b068fc378daa952ba7f163c4a11628f55a4df523b3ef91a4505050565b6001600160a01b0382166131e45760405162461bcd60e51b815260206004820181905260248201527f4552433732313a206d696e7420746f20746865207a65726f20616464726573736044820152606401610acc565b6000818152600260205260409020546001600160a01b0316156132495760405162461bcd60e51b815260206004820152601c60248201527f4552433732313a20746f6b656e20616c7265616479206d696e746564000000006044820152606401610acc565b6000818152600260205260409020546001600160a01b0316156132ae5760405162461bcd60e51b815260206004820152601c60248201527f4552433732313a20746f6b656e20616c7265616479206d696e746564000000006044820152606401610acc565b6001600160a01b038216600081815260036020908152604080832080546001019055848352600290915280822080546001600160a01b0319168417905551839291907fddf252ad1be2c89b69c2b068fc378daa952ba7f163c4a11628f55a4df523b3ef908290a45050565b600680546001600160a01b038381166001600160a01b0319831681179093556040519116919082907f8be0079c531659141344cd1fd0a4f28419497f9722a3daafe3b4186f6b6457e090600090a35050565b816001600160a01b0316836001600160a01b0316036133cc5760405162461bcd60e51b815260206004820152601960248201527f4552433732313a20617070726f766520746f2063616c6c6572000000000000006044820152606401610acc565b6001600160a01b03838116600081815260056020908152604080832094871680845294825291829020805460ff191686151590811790915591519182527f17307eab39ab6107e8899845ad3d59bd9653f200f220920489ca2b5937696c31910160405180910390a3505050565b61344484848461302a565b613450848484846134ff565b6115615760405162461bcd60e51b8152600401610acc906141e0565b6060600061347983613600565b600101905060008167ffffffffffffffff81111561349957613499613955565b6040519080825280601f01601f1916602001820160405280156134c3576020820181803683370190505b5090508181016020015b600019016f181899199a1a9b1b9c1cb0b131b232b360811b600a86061a8153600a85049450846134cd57509392505050565b60006001600160a01b0384163b156135f557604051630a85bd0160e11b81526001600160a01b0385169063150b7a0290613543903390899088908890600401614232565b6020604051808303816000875af192505050801561357e575060408051601f3d908101601f1916820190925261357b91810190614265565b60015b6135db573d8080156135ac576040519150601f19603f3d011682016040523d82523d6000602084013e6135b1565b606091505b5080516000036135d35760405162461bcd60e51b8152600401610acc906141e0565b805181602001fd5b6001600160e01b031916630a85bd0160e11b149050613022565b506001949350505050565b60008072184f03e93ff9f4daa797ed6e38ed64bf6a1f0160401b831061363f5772184f03e93ff9f4daa797ed6e38ed64bf6a1f0160401b830492506040015b6d04ee2d6d415b85acef8100000000831061366b576d04ee2d6d415b85acef8100000000830492506020015b662386f26fc10000831061368957662386f26fc10000830492506010015b6305f5e10083106136a1576305f5e100830492506008015b61271083106136b557612710830492506004015b606483106136c7576064830492506002015b600a83106109995760010192915050565b6001600160e01b031981168114612b6957600080fd5b60006020828403121561370057600080fd5b813561203e816136d8565b80356001600160a01b038116811461372257600080fd5b919050565b60006020828403121561373957600080fd5b61203e8261370b565b634e487b7160e01b600052602160045260246000fd5b60048110612b6957634e487b7160e01b600052602160045260246000fd5b6040810161378384613758565b9281526020015290565b60005b838110156137a8578181015183820152602001613790565b50506000910152565b600081518084526137c981602086016020860161378d565b601f01601f19169290920160200192915050565b60208152600061203e60208301846137b1565b60006020828403121561380257600080fd5b5035919050565b6000806040838503121561381c57600080fd5b8235915061382c6020840161370b565b90509250929050565b6000806040838503121561384857600080fd5b6138518361370b565b946020939093013593505050565b60048110612b6957600080fd5b60008060006060848603121561388157600080fd5b8335925060208401356138938161385f565b929592945050506040919091013590565b600080604083850312156138b757600080fd5b6138c08361370b565b915060208301356138d08161385f565b809150509250929050565b602081016138e883613758565b91905290565b60008060006060848603121561390357600080fd5b61390c8461370b565b925061391a6020850161370b565b9150604084013590509250925092565b8015158114612b6957600080fd5b60006020828403121561394a57600080fd5b813561203e8161392a565b634e487b7160e01b600052604160045260246000fd5b600067ffffffffffffffff8084111561398657613986613955565b604051601f8501601f19908116603f011681019082821181831017156139ae576139ae613955565b816040528093508581528686860111156139c757600080fd5b858560208301376000602087830101525050509392505050565b600082601f8301126139f257600080fd5b61203e8383356020850161396b565b60008060008060808587031215613a1757600080fd5b843567ffffffffffffffff811115613a2e57600080fd5b613a3a878288016139e1565b97602087013597506040870135966060013595509350505050565b600060208284031215613a6757600080fd5b813567ffffffffffffffff811115613a7e57600080fd5b613022848285016139e1565b6001600160a01b038a1681526020810189905261012060408201819052600090613ab68382018b6137b1565b90508281036060840152613aca818a6137b1565b9150508660808301528560a08301528460c08301528360e0830152613aee83613758565b826101008301529a9950505050505050505050565b60008060408385031215613b1657600080fd5b613b1f8361370b565b915060208301356138d08161392a565b60008060408385031215613b4257600080fd5b8235915060208301356138d08161385f565b60008060408385031215613b6757600080fd5b50508035926020909101359150565b600080600080600060a08688031215613b8e57600080fd5b85359450602086013567ffffffffffffffff80821115613bad57600080fd5b613bb989838a016139e1565b95506040880135915080821115613bcf57600080fd5b50613bdc888289016139e1565b9598949750949560608101359550608001359392505050565b60008060008060808587031215613c0b57600080fd5b613c148561370b565b9350613c226020860161370b565b925060408501359150606085013567ffffffffffffffff811115613c4557600080fd5b8501601f81018713613c5657600080fd5b613c658782356020840161396b565b91505092959194509250565b613c7a83613758565b82815260406020820152600061302260408301846137b1565b6001600160a01b038b8116825261014060208301819052600091613cb98483018e6137b1565b92508b60408501528a60608501528960808501528860a0850152613cdc88613758565b60c08401979097525093851660e08201529190931661010082015261012001919091529695505050505050565b6020808252825182820181905260009190848201906040850190845b81811015613d4a5783516001600160a01b031683529284019291840191600101613d25565b50909695505050505050565b60008060408385031215613d6957600080fd5b613d728361370b565b915061382c6020840161370b565b600181811c90821680613d9457607f821691505b602082108103613db457634e487b7160e01b600052602260045260246000fd5b50919050565b634e487b7160e01b600052601160045260246000fd5b8181038181111561099957610999613dba565b808202811582820484141761099957610999613dba565b634e487b7160e01b600052601260045260246000fd5b600082613e1f57613e1f613dfa565b500490565b6020808252600e908201526d139bdd0818481cd95b9d1a5b995b60921b604082015260600190565b8082018082111561099957610999613dba565b613e6883613758565b60f89290921b8252600182015260210190565b6020808252602d908201527f4552433732313a2063616c6c6572206973206e6f7420746f6b656e206f776e6560408201526c1c881bdc88185c1c1c9bdd9959609a1b606082015260800190565b6020808252600c908201526b2737ba10309035b2b2b832b960a11b604082015260600190565b600060208284031215613f0057600080fd5b815161203e8161392a565b602080825260159082015274151bdad95b881d1c985b9cd9995c8819985a5b1959605a1b604082015260600190565b600060018201613f4c57613f4c613dba565b5060010190565b601f821115610b6d576000816000526020600020601f850160051c81016020861015613f7c5750805b601f850160051c820191505b81811015613f9b57828155600101613f88565b505050505050565b815167ffffffffffffffff811115613fbd57613fbd613955565b613fd181613fcb8454613d80565b84613f53565b602080601f8311600181146140065760008415613fee5750858301515b600019600386901b1c1916600185901b178555613f9b565b600085815260208120601f198616915b8281101561403557888601518255948401946001909101908401614016565b50858210156140535787850151600019600388901b60f8161c191681555b5050505050600190811b01905550565b60808152600061407660808301876137b1565b6020830195909552506040810192909252606090910152919050565b60208082526012908201527114d19048191bd95cc81b9bdd08195e1a5cdd60721b604082015260600190565b6000826140cd576140cd613dfa565b500690565b8481526001600160a01b03841660208201526080604082018190526000906140fc908301856137b1565b828103606084015261410e81856137b1565b979650505050505050565b60208082526006908201526550616e69632160d01b604082015260600190565b634e487b7160e01b600052603260045260246000fd5b8281526040810161415f83613758565b8260208301529392505050565b6000835161417e81846020880161378d565b83519083019061419281836020880161378d565b01949350505050565b60208082526025908201527f4552433732313a207472616e736665722066726f6d20696e636f72726563742060408201526437bbb732b960d91b606082015260800190565b60208082526032908201527f4552433732313a207472616e7366657220746f206e6f6e20455243373231526560408201527131b2b4bb32b91034b6b83632b6b2b73a32b960711b606082015260800190565b6001600160a01b0385811682528416602082015260408101839052608060608201819052600090610bf3908301846137b1565b60006020828403121561427757600080fd5b815161203e816136d856fea2646970667358221220e8a533a63fa70e74f1c5bcc48b3568b8ff974e91c768d9286ca79472df6f892e64736f6c63430008180033",
  "linkReferences": {},
  "deployedLinkReferences": {}
}